{
  "contractName": "StakingRewards",
  "abi": [
    {
      "inputs": [
        {
          "internalType": "address",
          "name": "_owner",
          "type": "address"
        },
        {
          "internalType": "address",
          "name": "_rewardsDistribution",
          "type": "address"
        },
        {
          "internalType": "address",
          "name": "_rewardsToken",
          "type": "address"
        },
        {
          "internalType": "address",
          "name": "_stakingToken",
          "type": "address"
        }
      ],
      "payable": false,
      "stateMutability": "nonpayable",
      "type": "constructor"
    },
    {
      "anonymous": false,
      "inputs": [
        {
          "indexed": false,
          "internalType": "address",
          "name": "oldOwner",
          "type": "address"
        },
        {
          "indexed": false,
          "internalType": "address",
          "name": "newOwner",
          "type": "address"
        }
      ],
      "name": "OwnerChanged",
      "type": "event"
    },
    {
      "anonymous": false,
      "inputs": [
        {
          "indexed": false,
          "internalType": "address",
          "name": "newOwner",
          "type": "address"
        }
      ],
      "name": "OwnerNominated",
      "type": "event"
    },
    {
      "anonymous": false,
      "inputs": [
        {
          "indexed": false,
          "internalType": "address",
          "name": "token",
          "type": "address"
        },
        {
          "indexed": false,
          "internalType": "uint256",
          "name": "amount",
          "type": "uint256"
        }
      ],
      "name": "Recovered",
      "type": "event"
    },
    {
      "anonymous": false,
      "inputs": [
        {
          "indexed": false,
          "internalType": "uint256",
          "name": "reward",
          "type": "uint256"
        }
      ],
      "name": "RewardAdded",
      "type": "event"
    },
    {
      "anonymous": false,
      "inputs": [
        {
          "indexed": true,
          "internalType": "address",
          "name": "user",
          "type": "address"
        },
        {
          "indexed": false,
          "internalType": "uint256",
          "name": "reward",
          "type": "uint256"
        }
      ],
      "name": "RewardPaid",
      "type": "event"
    },
    {
      "anonymous": false,
      "inputs": [
        {
          "indexed": false,
          "internalType": "uint256",
          "name": "newDuration",
          "type": "uint256"
        }
      ],
      "name": "RewardsDurationUpdated",
      "type": "event"
    },
    {
      "anonymous": false,
      "inputs": [
        {
          "indexed": true,
          "internalType": "address",
          "name": "user",
          "type": "address"
        },
        {
          "indexed": false,
          "internalType": "uint256",
          "name": "amount",
          "type": "uint256"
        }
      ],
      "name": "Staked",
      "type": "event"
    },
    {
      "anonymous": false,
      "inputs": [
        {
          "indexed": true,
          "internalType": "address",
          "name": "user",
          "type": "address"
        },
        {
          "indexed": false,
          "internalType": "uint256",
          "name": "amount",
          "type": "uint256"
        }
      ],
      "name": "Withdrawn",
      "type": "event"
    },
    {
      "constant": false,
      "inputs": [],
      "name": "acceptOwnership",
      "outputs": [],
      "payable": false,
      "stateMutability": "nonpayable",
      "type": "function"
    },
    {
      "constant": true,
      "inputs": [],
      "name": "lastUpdateTime",
      "outputs": [
        {
          "internalType": "uint256",
          "name": "",
          "type": "uint256"
        }
      ],
      "payable": false,
      "stateMutability": "view",
      "type": "function"
    },
    {
      "constant": true,
      "inputs": [],
      "name": "maximumStakingAmount",
      "outputs": [
        {
          "internalType": "uint256",
          "name": "",
          "type": "uint256"
        }
      ],
      "payable": false,
      "stateMutability": "view",
      "type": "function"
    },
    {
      "constant": false,
      "inputs": [
        {
          "internalType": "address",
          "name": "_owner",
          "type": "address"
        }
      ],
      "name": "nominateNewOwner",
      "outputs": [],
      "payable": false,
      "stateMutability": "nonpayable",
      "type": "function"
    },
    {
      "constant": true,
      "inputs": [],
      "name": "nominatedOwner",
      "outputs": [
        {
          "internalType": "address",
          "name": "",
          "type": "address"
        }
      ],
      "payable": false,
      "stateMutability": "view",
      "type": "function"
    },
    {
      "constant": true,
      "inputs": [],
      "name": "owner",
      "outputs": [
        {
          "internalType": "address",
          "name": "",
          "type": "address"
        }
      ],
      "payable": false,
      "stateMutability": "view",
      "type": "function"
    },
    {
      "constant": true,
      "inputs": [],
      "name": "periodFinish",
      "outputs": [
        {
          "internalType": "uint256",
          "name": "",
          "type": "uint256"
        }
      ],
      "payable": false,
      "stateMutability": "view",
      "type": "function"
    },
    {
      "constant": true,
      "inputs": [],
      "name": "rewardPerTokenStored",
      "outputs": [
        {
          "internalType": "uint256",
          "name": "",
          "type": "uint256"
        }
      ],
      "payable": false,
      "stateMutability": "view",
      "type": "function"
    },
    {
      "constant": true,
      "inputs": [],
      "name": "rewardRate",
      "outputs": [
        {
          "internalType": "uint256",
          "name": "",
          "type": "uint256"
        }
      ],
      "payable": false,
      "stateMutability": "view",
      "type": "function"
    },
    {
      "constant": true,
      "inputs": [
        {
          "internalType": "address",
          "name": "",
          "type": "address"
        }
      ],
      "name": "rewards",
      "outputs": [
        {
          "internalType": "uint256",
          "name": "",
          "type": "uint256"
        }
      ],
      "payable": false,
      "stateMutability": "view",
      "type": "function"
    },
    {
      "constant": true,
      "inputs": [],
      "name": "rewardsDistribution",
      "outputs": [
        {
          "internalType": "address",
          "name": "",
          "type": "address"
        }
      ],
      "payable": false,
      "stateMutability": "view",
      "type": "function"
    },
    {
      "constant": true,
      "inputs": [],
      "name": "rewardsDuration",
      "outputs": [
        {
          "internalType": "uint256",
          "name": "",
          "type": "uint256"
        }
      ],
      "payable": false,
      "stateMutability": "view",
      "type": "function"
    },
    {
      "constant": true,
      "inputs": [],
      "name": "rewardsToken",
      "outputs": [
        {
          "internalType": "contract IERC20",
          "name": "",
          "type": "address"
        }
      ],
      "payable": false,
      "stateMutability": "view",
      "type": "function"
    },
    {
      "constant": false,
      "inputs": [
        {
          "internalType": "address",
          "name": "_rewardsDistribution",
          "type": "address"
        }
      ],
      "name": "setRewardsDistribution",
      "outputs": [],
      "payable": false,
      "stateMutability": "nonpayable",
      "type": "function"
    },
    {
      "constant": true,
      "inputs": [
        {
          "internalType": "address",
          "name": "",
          "type": "address"
        }
      ],
      "name": "stakedTimes",
      "outputs": [
        {
          "internalType": "uint256",
          "name": "",
          "type": "uint256"
        }
      ],
      "payable": false,
      "stateMutability": "view",
      "type": "function"
    },
    {
      "constant": true,
      "inputs": [],
      "name": "stakingToken",
      "outputs": [
        {
          "internalType": "contract IERC20",
          "name": "",
          "type": "address"
        }
      ],
      "payable": false,
      "stateMutability": "view",
      "type": "function"
    },
    {
      "constant": true,
      "inputs": [
        {
          "internalType": "address",
          "name": "",
          "type": "address"
        }
      ],
      "name": "userRewardPerTokenPaid",
      "outputs": [
        {
          "internalType": "uint256",
          "name": "",
          "type": "uint256"
        }
      ],
      "payable": false,
      "stateMutability": "view",
      "type": "function"
    },
    {
      "constant": false,
      "inputs": [
        {
          "internalType": "uint256",
          "name": "_rewardsDuration",
          "type": "uint256"
        },
        {
          "internalType": "uint256",
          "name": "_maximumStakingAmount",
          "type": "uint256"
        }
      ],
      "name": "setRules",
      "outputs": [],
      "payable": false,
      "stateMutability": "nonpayable",
      "type": "function"
    },
    {
      "constant": true,
      "inputs": [],
      "name": "totalSupply",
      "outputs": [
        {
          "internalType": "uint256",
          "name": "",
          "type": "uint256"
        }
      ],
      "payable": false,
      "stateMutability": "view",
      "type": "function"
    },
    {
      "constant": true,
      "inputs": [
        {
          "internalType": "address",
          "name": "account",
          "type": "address"
        }
      ],
      "name": "balanceOf",
      "outputs": [
        {
          "internalType": "uint256",
          "name": "",
          "type": "uint256"
        }
      ],
      "payable": false,
      "stateMutability": "view",
      "type": "function"
    },
    {
      "constant": true,
      "inputs": [],
      "name": "lastTimeRewardApplicable",
      "outputs": [
        {
          "internalType": "uint256",
          "name": "",
          "type": "uint256"
        }
      ],
      "payable": false,
      "stateMutability": "view",
      "type": "function"
    },
    {
      "constant": true,
      "inputs": [],
      "name": "rewardPerToken",
      "outputs": [
        {
          "internalType": "uint256",
          "name": "",
          "type": "uint256"
        }
      ],
      "payable": false,
      "stateMutability": "view",
      "type": "function"
    },
    {
      "constant": true,
      "inputs": [
        {
          "internalType": "address",
          "name": "account",
          "type": "address"
        }
      ],
      "name": "earned",
      "outputs": [
        {
          "internalType": "uint256",
          "name": "",
          "type": "uint256"
        }
      ],
      "payable": false,
      "stateMutability": "view",
      "type": "function"
    },
    {
      "constant": true,
      "inputs": [],
      "name": "getRewardForDuration",
      "outputs": [
        {
          "internalType": "uint256",
          "name": "",
          "type": "uint256"
        }
      ],
      "payable": false,
      "stateMutability": "view",
      "type": "function"
    },
    {
      "constant": false,
      "inputs": [
        {
          "internalType": "uint256",
          "name": "amount",
          "type": "uint256"
        }
      ],
      "name": "stake",
      "outputs": [],
      "payable": false,
      "stateMutability": "nonpayable",
      "type": "function"
    },
    {
      "constant": false,
      "inputs": [],
      "name": "withdrawAll",
      "outputs": [],
      "payable": false,
      "stateMutability": "nonpayable",
      "type": "function"
    },
    {
      "constant": false,
      "inputs": [],
      "name": "getReward",
      "outputs": [],
      "payable": false,
      "stateMutability": "nonpayable",
      "type": "function"
    },
    {
      "constant": false,
      "inputs": [],
      "name": "exit",
      "outputs": [],
      "payable": false,
      "stateMutability": "nonpayable",
      "type": "function"
    },
    {
      "constant": false,
      "inputs": [
        {
          "internalType": "uint256",
          "name": "reward",
          "type": "uint256"
        }
      ],
      "name": "notifyRewardAmount",
      "outputs": [],
      "payable": false,
      "stateMutability": "nonpayable",
      "type": "function"
    },
    {
      "constant": false,
      "inputs": [
        {
          "internalType": "uint256",
          "name": "_rewardsDuration",
          "type": "uint256"
        }
      ],
      "name": "setRewardsDuration",
      "outputs": [],
      "payable": false,
      "stateMutability": "nonpayable",
      "type": "function"
    }
  ],
  "bytecode": "0x60806040526000600655600060075562093a80600855620186a0600b5534801561002857600080fd5b50604051612d30380380612d308339818101604052608081101561004b57600080fd5b810190808051906020019092919080519060200190929190805190602001909291908051906020019092919050505083600073ffffffffffffffffffffffffffffffffffffffff168173ffffffffffffffffffffffffffffffffffffffff16141561011e576040517f08c379a00000000000000000000000000000000000000000000000000000000081526004018080602001828103825260198152602001807f4f776e657220616464726573732063616e6e6f7420626520300000000000000081525060200191505060405180910390fd5b806000806101000a81548173ffffffffffffffffffffffffffffffffffffffff021916908373ffffffffffffffffffffffffffffffffffffffff1602179055507fb532073b38c83145e3e5135377a08bf9aab55bc0fd7c1179cd4fb995d2a5159c600082604051808373ffffffffffffffffffffffffffffffffffffffff1673ffffffffffffffffffffffffffffffffffffffff1681526020018273ffffffffffffffffffffffffffffffffffffffff1673ffffffffffffffffffffffffffffffffffffffff1681526020019250505060405180910390a150600160038190555081600460006101000a81548173ffffffffffffffffffffffffffffffffffffffff021916908373ffffffffffffffffffffffffffffffffffffffff16021790555080600560006101000a81548173ffffffffffffffffffffffffffffffffffffffff021916908373ffffffffffffffffffffffffffffffffffffffff16021790555082600260006101000a81548173ffffffffffffffffffffffffffffffffffffffff021916908373ffffffffffffffffffffffffffffffffffffffff16021790555050505050612a5b806102d56000396000f3fe608060405234801561001057600080fd5b50600436106101d95760003560e01c806372f702f311610104578063a694fc3a116100a2578063d1af0c7d11610071578063d1af0c7d14610716578063df136d6514610760578063e9fad8ee1461077e578063ebe2b12b14610788576101d9565b8063a694fc3a1461067e578063c8f33c91146106ac578063cc1a378f146106ca578063cd3daf9d146106f8576101d9565b806380faa57d116100de57806380faa57d146105b4578063853828b6146105d25780638b876347146105dc5780638da5cb5b14610634576101d9565b806372f702f31461054257806379ba50971461058c5780637b0a47ee14610596576101d9565b8063386a95251161017c57806353a47bb71161014b57806353a47bb7146104105780636ad2fb771461045a5780636d92da2a146104b257806370a08231146104ea576101d9565b8063386a9525146103705780633c6b16ab1461038e5780633d18b912146103bc5780633fc6df6e146103c6576101d9565b806318160ddd116101b857806318160ddd146102d257806319762143146102f05780631c1f78eb1461033457806320218c4114610352576101d9565b80628cc262146101de5780630700037d146102365780631627540c1461028e575b600080fd5b610220600480360360208110156101f457600080fd5b81019080803573ffffffffffffffffffffffffffffffffffffffff1690602001909291905050506107a6565b6040518082815260200191505060405180910390f35b6102786004803603602081101561024c57600080fd5b81019080803573ffffffffffffffffffffffffffffffffffffffff1690602001909291905050506108c4565b6040518082815260200191505060405180910390f35b6102d0600480360360208110156102a457600080fd5b81019080803573ffffffffffffffffffffffffffffffffffffffff1690602001909291905050506108dc565b005b6102da610a28565b6040518082815260200191505060405180910390f35b6103326004803603602081101561030657600080fd5b81019080803573ffffffffffffffffffffffffffffffffffffffff169060200190929190505050610a32565b005b61033c610b1b565b6040518082815260200191505060405180910390f35b61035a610b39565b6040518082815260200191505060405180910390f35b610378610b3f565b6040518082815260200191505060405180910390f35b6103ba600480360360208110156103a457600080fd5b8101908080359060200190929190505050610b45565b005b6103c4610f23565b005b6103ce611240565b604051808273ffffffffffffffffffffffffffffffffffffffff1673ffffffffffffffffffffffffffffffffffffffff16815260200191505060405180910390f35b610418611266565b604051808273ffffffffffffffffffffffffffffffffffffffff1673ffffffffffffffffffffffffffffffffffffffff16815260200191505060405180910390f35b61049c6004803603602081101561047057600080fd5b81019080803573ffffffffffffffffffffffffffffffffffffffff16906020019092919050505061128c565b6040518082815260200191505060405180910390f35b6104e8600480360360408110156104c857600080fd5b8101908080359060200190929190803590602001909291905050506112a4565b005b61052c6004803603602081101561050057600080fd5b81019080803573ffffffffffffffffffffffffffffffffffffffff1690602001909291905050506112b6565b6040518082815260200191505060405180910390f35b61054a6112ff565b604051808273ffffffffffffffffffffffffffffffffffffffff1673ffffffffffffffffffffffffffffffffffffffff16815260200191505060405180910390f35b610594611325565b005b61059e61154b565b6040518082815260200191505060405180910390f35b6105bc611551565b6040518082815260200191505060405180910390f35b6105da611564565b005b61061e600480360360208110156105f257600080fd5b81019080803573ffffffffffffffffffffffffffffffffffffffff1690602001909291905050506119c6565b6040518082815260200191505060405180910390f35b61063c6119de565b604051808273ffffffffffffffffffffffffffffffffffffffff1673ffffffffffffffffffffffffffffffffffffffff16815260200191505060405180910390f35b6106aa6004803603602081101561069457600080fd5b8101908080359060200190929190505050611a03565b005b6106b4611ec1565b6040518082815260200191505060405180910390f35b6106f6600480360360208110156106e057600080fd5b8101908080359060200190929190505050611ec7565b005b610700612016565b6040518082815260200191505060405180910390f35b61071e6120a4565b604051808273ffffffffffffffffffffffffffffffffffffffff1673ffffffffffffffffffffffffffffffffffffffff16815260200191505060405180910390f35b6107686120ca565b6040518082815260200191505060405180910390f35b6107866120d0565b005b6107906120e2565b6040518082815260200191505060405180910390f35b60006108bd600e60008473ffffffffffffffffffffffffffffffffffffffff1673ffffffffffffffffffffffffffffffffffffffff168152602001908152602001600020546108af670de0b6b3a76400006108a1610853600d60008973ffffffffffffffffffffffffffffffffffffffff1673ffffffffffffffffffffffffffffffffffffffff16815260200190815260200160002054610845612016565b6120e890919063ffffffff16565b601060008973ffffffffffffffffffffffffffffffffffffffff1673ffffffffffffffffffffffffffffffffffffffff1681526020019081526020016000205461213290919063ffffffff16565b6121b890919063ffffffff16565b61220290919063ffffffff16565b9050919050565b600e6020528060005260406000206000915090505481565b6000809054906101000a900473ffffffffffffffffffffffffffffffffffffffff1673ffffffffffffffffffffffffffffffffffffffff163373ffffffffffffffffffffffffffffffffffffffff1614610981576040517f08c379a000000000000000000000000000000000000000000000000000000000815260040180806020018281038252602f815260200180612983602f913960400191505060405180910390fd5b80600160006101000a81548173ffffffffffffffffffffffffffffffffffffffff021916908373ffffffffffffffffffffffffffffffffffffffff1602179055507f906a1c6bd7e3091ea86693dd029a831c19049ce77f1dce2ce0bab1cacbabce2281604051808273ffffffffffffffffffffffffffffffffffffffff1673ffffffffffffffffffffffffffffffffffffffff16815260200191505060405180910390a150565b6000600f54905090565b6000809054906101000a900473ffffffffffffffffffffffffffffffffffffffff1673ffffffffffffffffffffffffffffffffffffffff163373ffffffffffffffffffffffffffffffffffffffff1614610ad7576040517f08c379a000000000000000000000000000000000000000000000000000000000815260040180806020018281038252602f815260200180612983602f913960400191505060405180910390fd5b80600260006101000a81548173ffffffffffffffffffffffffffffffffffffffff021916908373ffffffffffffffffffffffffffffffffffffffff16021790555050565b6000610b3460085460075461213290919063ffffffff16565b905090565b600b5481565b60085481565b600260009054906101000a900473ffffffffffffffffffffffffffffffffffffffff1673ffffffffffffffffffffffffffffffffffffffff163373ffffffffffffffffffffffffffffffffffffffff1614610beb576040517f08c379a000000000000000000000000000000000000000000000000000000000815260040180806020018281038252602a8152602001806129d3602a913960400191505060405180910390fd5b6000610bf5612016565b600a81905550610c03611551565b600981905550600073ffffffffffffffffffffffffffffffffffffffff168173ffffffffffffffffffffffffffffffffffffffff1614610cd057610c46816107a6565b600e60008373ffffffffffffffffffffffffffffffffffffffff1673ffffffffffffffffffffffffffffffffffffffff16815260200190815260200160002081905550600a54600d60008373ffffffffffffffffffffffffffffffffffffffff1673ffffffffffffffffffffffffffffffffffffffff168152602001908152602001600020819055505b6006544210610cf957610cee600854836121b890919063ffffffff16565b600781905550610d5b565b6000610d10426006546120e890919063ffffffff16565b90506000610d296007548361213290919063ffffffff16565b9050610d52600854610d44838761220290919063ffffffff16565b6121b890919063ffffffff16565b60078190555050505b6000600460009054906101000a900473ffffffffffffffffffffffffffffffffffffffff1673ffffffffffffffffffffffffffffffffffffffff166370a08231306040518263ffffffff1660e01b8152600401808273ffffffffffffffffffffffffffffffffffffffff1673ffffffffffffffffffffffffffffffffffffffff16815260200191505060206040518083038186803b158015610dfc57600080fd5b505afa158015610e10573d6000803e3d6000fd5b505050506040513d6020811015610e2657600080fd5b81019080805190602001909291905050509050610e4e600854826121b890919063ffffffff16565b6007541115610ec5576040517f08c379a00000000000000000000000000000000000000000000000000000000081526004018080602001828103825260188152602001807f50726f76696465642072657761726420746f6f2068696768000000000000000081525060200191505060405180910390fd5b42600981905550610ee16008544261220290919063ffffffff16565b6006819055507fde88a922e0d3b88b24e9623efeb464919c6bf9f66857a65e2bfcf2ce87a9433d836040518082815260200191505060405180910390a1505050565b60016003600082825401925050819055506000600354905033610f44612016565b600a81905550610f52611551565b600981905550600073ffffffffffffffffffffffffffffffffffffffff168173ffffffffffffffffffffffffffffffffffffffff161461101f57610f95816107a6565b600e60008373ffffffffffffffffffffffffffffffffffffffff1673ffffffffffffffffffffffffffffffffffffffff16815260200190815260200160002081905550600a54600d60008373ffffffffffffffffffffffffffffffffffffffff1673ffffffffffffffffffffffffffffffffffffffff168152602001908152602001600020819055505b6006544210611096576040517f08c379a00000000000000000000000000000000000000000000000000000000081526004018080602001828103825260158152602001807f506f6f6c206973206e6f742066696e69736865642e000000000000000000000081525060200191505060405180910390fd5b6000600e60003373ffffffffffffffffffffffffffffffffffffffff1673ffffffffffffffffffffffffffffffffffffffff16815260200190815260200160002054905060008111156111c4576000600e60003373ffffffffffffffffffffffffffffffffffffffff1673ffffffffffffffffffffffffffffffffffffffff168152602001908152602001600020819055506111753382600460009054906101000a900473ffffffffffffffffffffffffffffffffffffffff1673ffffffffffffffffffffffffffffffffffffffff1661228a9092919063ffffffff16565b3373ffffffffffffffffffffffffffffffffffffffff167fe2403640ba68fed3a2f88b7557551d1993f84b99bb10ff833f0cf8db0c5e0486826040518082815260200191505060405180910390a25b5050600354811461123d576040517f08c379a000000000000000000000000000000000000000000000000000000000815260040180806020018281038252601f8152602001807f5265656e7472616e637947756172643a207265656e7472616e742063616c6c0081525060200191505060405180910390fd5b50565b600260009054906101000a900473ffffffffffffffffffffffffffffffffffffffff1681565b600160009054906101000a900473ffffffffffffffffffffffffffffffffffffffff1681565b600c6020528060005260406000206000915090505481565b8160088190555080600b819055505050565b6000601060008373ffffffffffffffffffffffffffffffffffffffff1673ffffffffffffffffffffffffffffffffffffffff168152602001908152602001600020549050919050565b600560009054906101000a900473ffffffffffffffffffffffffffffffffffffffff1681565b600160009054906101000a900473ffffffffffffffffffffffffffffffffffffffff1673ffffffffffffffffffffffffffffffffffffffff163373ffffffffffffffffffffffffffffffffffffffff16146113cb576040517f08c379a00000000000000000000000000000000000000000000000000000000081526004018080602001828103825260358152602001806128ef6035913960400191505060405180910390fd5b7fb532073b38c83145e3e5135377a08bf9aab55bc0fd7c1179cd4fb995d2a5159c6000809054906101000a900473ffffffffffffffffffffffffffffffffffffffff16600160009054906101000a900473ffffffffffffffffffffffffffffffffffffffff16604051808373ffffffffffffffffffffffffffffffffffffffff1673ffffffffffffffffffffffffffffffffffffffff1681526020018273ffffffffffffffffffffffffffffffffffffffff1673ffffffffffffffffffffffffffffffffffffffff1681526020019250505060405180910390a1600160009054906101000a900473ffffffffffffffffffffffffffffffffffffffff166000806101000a81548173ffffffffffffffffffffffffffffffffffffffff021916908373ffffffffffffffffffffffffffffffffffffffff1602179055506000600160006101000a81548173ffffffffffffffffffffffffffffffffffffffff021916908373ffffffffffffffffffffffffffffffffffffffff160217905550565b60075481565b600061155f4260065461235b565b905090565b60016003600082825401925050819055506000600354905033611585612016565b600a81905550611593611551565b600981905550600073ffffffffffffffffffffffffffffffffffffffff168173ffffffffffffffffffffffffffffffffffffffff1614611660576115d6816107a6565b600e60008373ffffffffffffffffffffffffffffffffffffffff1673ffffffffffffffffffffffffffffffffffffffff16815260200190815260200160002081905550600a54600d60008373ffffffffffffffffffffffffffffffffffffffff1673ffffffffffffffffffffffffffffffffffffffff168152602001908152602001600020819055505b6000601060003373ffffffffffffffffffffffffffffffffffffffff1673ffffffffffffffffffffffffffffffffffffffff1681526020019081526020016000205490506116b981600f546120e890919063ffffffff16565b600f819055506000601060003373ffffffffffffffffffffffffffffffffffffffff1673ffffffffffffffffffffffffffffffffffffffff168152602001908152602001600020819055506117513382600560009054906101000a900473ffffffffffffffffffffffffffffffffffffffff1673ffffffffffffffffffffffffffffffffffffffff1661228a9092919063ffffffff16565b600654421080156117b5575062093a806117b3600c60003373ffffffffffffffffffffffffffffffffffffffff1673ffffffffffffffffffffffffffffffffffffffff16815260200190815260200160002054426120e890919063ffffffff16565b105b156118fc57600061182260646118146019600e60003373ffffffffffffffffffffffffffffffffffffffff1673ffffffffffffffffffffffffffffffffffffffff1681526020019081526020016000205461213290919063ffffffff16565b6121b890919063ffffffff16565b905061187681600e60003373ffffffffffffffffffffffffffffffffffffffff1673ffffffffffffffffffffffffffffffffffffffff168152602001908152602001600020546120e890919063ffffffff16565b600e60003373ffffffffffffffffffffffffffffffffffffffff1673ffffffffffffffffffffffffffffffffffffffff168152602001908152602001600020819055506118f46118e36118d4426006546120e890919063ffffffff16565b836121b890919063ffffffff16565b60075461220290919063ffffffff16565b600781905550505b3373ffffffffffffffffffffffffffffffffffffffff167f7084f5476618d8e60b11ef0d7d3f06914655adb8793e28ff7f018d4c76d505d5826040518082815260200191505060405180910390a2505060035481146119c3576040517f08c379a000000000000000000000000000000000000000000000000000000000815260040180806020018281038252601f8152602001807f5265656e7472616e637947756172643a207265656e7472616e742063616c6c0081525060200191505060405180910390fd5b50565b600d6020528060005260406000206000915090505481565b6000809054906101000a900473ffffffffffffffffffffffffffffffffffffffff1681565b60016003600082825401925050819055506000600354905033611a24612016565b600a81905550611a32611551565b600981905550600073ffffffffffffffffffffffffffffffffffffffff168173ffffffffffffffffffffffffffffffffffffffff1614611aff57611a75816107a6565b600e60008373ffffffffffffffffffffffffffffffffffffffff1673ffffffffffffffffffffffffffffffffffffffff16815260200190815260200160002081905550600a54600d60008373ffffffffffffffffffffffffffffffffffffffff1673ffffffffffffffffffffffffffffffffffffffff168152602001908152602001600020819055505b60008311611b75576040517f08c379a000000000000000000000000000000000000000000000000000000000815260040180806020018281038252600e8152602001807f43616e6e6f74207374616b65203000000000000000000000000000000000000081525060200191505060405180910390fd5b600b54611b8d84600f5461220290919063ffffffff16565b11611be3576040517f08c379a00000000000000000000000000000000000000000000000000000000081526004018080602001828103825260288152602001806129246028913960400191505060405180910390fd5b611c0c600a611bfe6002600b5461213290919063ffffffff16565b6121b890919063ffffffff16565b611c5e84601060003373ffffffffffffffffffffffffffffffffffffffff1673ffffffffffffffffffffffffffffffffffffffff1681526020019081526020016000205461220290919063ffffffff16565b11611cb4576040517f08c379a000000000000000000000000000000000000000000000000000000000815260040180806020018281038252603781526020018061294c6037913960400191505060405180910390fd5b611cc983600f5461220290919063ffffffff16565b600f81905550611d2183601060003373ffffffffffffffffffffffffffffffffffffffff1673ffffffffffffffffffffffffffffffffffffffff1681526020019081526020016000205461220290919063ffffffff16565b601060003373ffffffffffffffffffffffffffffffffffffffff1673ffffffffffffffffffffffffffffffffffffffff16815260200190815260200160002081905550611db3333085600560009054906101000a900473ffffffffffffffffffffffffffffffffffffffff1673ffffffffffffffffffffffffffffffffffffffff16612374909392919063ffffffff16565b42600c60003373ffffffffffffffffffffffffffffffffffffffff1673ffffffffffffffffffffffffffffffffffffffff168152602001908152602001600020819055503373ffffffffffffffffffffffffffffffffffffffff167f9e71bc8eea02a63969f509818f2dafb9254532904319f9dbda79b67bd34a5f3d846040518082815260200191505060405180910390a2506003548114611ebd576040517f08c379a000000000000000000000000000000000000000000000000000000000815260040180806020018281038252601f8152602001807f5265656e7472616e637947756172643a207265656e7472616e742063616c6c0081525060200191505060405180910390fd5b5050565b60095481565b6000809054906101000a900473ffffffffffffffffffffffffffffffffffffffff1673ffffffffffffffffffffffffffffffffffffffff163373ffffffffffffffffffffffffffffffffffffffff1614611f6c576040517f08c379a000000000000000000000000000000000000000000000000000000000815260040180806020018281038252602f815260200180612983602f913960400191505060405180910390fd5b60006006541480611f7e575060065442115b611fd3576040517f08c379a00000000000000000000000000000000000000000000000000000000081526004018080602001828103825260588152602001806128976058913960600191505060405180910390fd5b806008819055507ffb46ca5a5e06d4540d6387b930a7c978bce0db5f449ec6b3f5d07c6e1d44f2d36008546040518082815260200191505060405180910390a150565b600080600f54141561202c57600a5490506120a1565b61209e61208d600f5461207f670de0b6b3a7640000612071600754612063600954612055611551565b6120e890919063ffffffff16565b61213290919063ffffffff16565b61213290919063ffffffff16565b6121b890919063ffffffff16565b600a5461220290919063ffffffff16565b90505b90565b600460009054906101000a900473ffffffffffffffffffffffffffffffffffffffff1681565b600a5481565b6120d8611564565b6120e0610f23565b565b60065481565b600061212a83836040518060400160405280601e81526020017f536166654d6174683a207375627472616374696f6e206f766572666c6f77000081525061247a565b905092915050565b60008083141561214557600090506121b2565b600082840290508284828161215657fe5b04146121ad576040517f08c379a00000000000000000000000000000000000000000000000000000000081526004018080602001828103825260218152602001806129b26021913960400191505060405180910390fd5b809150505b92915050565b60006121fa83836040518060400160405280601a81526020017f536166654d6174683a206469766973696f6e206279207a65726f00000000000081525061253a565b905092915050565b600080828401905083811015612280576040517f08c379a000000000000000000000000000000000000000000000000000000000815260040180806020018281038252601b8152602001807f536166654d6174683a206164646974696f6e206f766572666c6f77000000000081525060200191505060405180910390fd5b8091505092915050565b612356838473ffffffffffffffffffffffffffffffffffffffff1663a9059cbb905060e01b8484604051602401808373ffffffffffffffffffffffffffffffffffffffff1673ffffffffffffffffffffffffffffffffffffffff16815260200182815260200192505050604051602081830303815290604052907bffffffffffffffffffffffffffffffffffffffffffffffffffffffff19166020820180517bffffffffffffffffffffffffffffffffffffffffffffffffffffffff8381831617835250505050612600565b505050565b600081831061236a578161236c565b825b905092915050565b612474848573ffffffffffffffffffffffffffffffffffffffff166323b872dd905060e01b858585604051602401808473ffffffffffffffffffffffffffffffffffffffff1673ffffffffffffffffffffffffffffffffffffffff1681526020018373ffffffffffffffffffffffffffffffffffffffff1673ffffffffffffffffffffffffffffffffffffffff1681526020018281526020019350505050604051602081830303815290604052907bffffffffffffffffffffffffffffffffffffffffffffffffffffffff19166020820180517bffffffffffffffffffffffffffffffffffffffffffffffffffffffff8381831617835250505050612600565b50505050565b6000838311158290612527576040517f08c379a00000000000000000000000000000000000000000000000000000000081526004018080602001828103825283818151815260200191508051906020019080838360005b838110156124ec5780820151818401526020810190506124d1565b50505050905090810190601f1680156125195780820380516001836020036101000a031916815260200191505b509250505060405180910390fd5b5060008385039050809150509392505050565b600080831182906125e6576040517f08c379a00000000000000000000000000000000000000000000000000000000081526004018080602001828103825283818151815260200191508051906020019080838360005b838110156125ab578082015181840152602081019050612590565b50505050905090810190601f1680156125d85780820380516001836020036101000a031916815260200191505b509250505060405180910390fd5b5060008385816125f257fe5b049050809150509392505050565b61261f8273ffffffffffffffffffffffffffffffffffffffff1661284b565b612691576040517f08c379a000000000000000000000000000000000000000000000000000000000815260040180806020018281038252601f8152602001807f5361666545524332303a2063616c6c20746f206e6f6e2d636f6e74726163740081525060200191505060405180910390fd5b600060608373ffffffffffffffffffffffffffffffffffffffff16836040518082805190602001908083835b602083106126e057805182526020820191506020810190506020830392506126bd565b6001836020036101000a0380198251168184511680821785525050505050509050019150506000604051808303816000865af19150503d8060008114612742576040519150601f19603f3d011682016040523d82523d6000602084013e612747565b606091505b5091509150816127bf576040517f08c379a00000000000000000000000000000000000000000000000000000000081526004018080602001828103825260208152602001807f5361666545524332303a206c6f772d6c6576656c2063616c6c206661696c656481525060200191505060405180910390fd5b600081511115612845578080602001905160208110156127de57600080fd5b8101908080519060200190929190505050612844576040517f08c379a000000000000000000000000000000000000000000000000000000000815260040180806020018281038252602a8152602001806129fd602a913960400191505060405180910390fd5b5b50505050565b60008060007fc5d2460186f7233c927e7db2dcc703c0e500b653ca82273b7bfad8045d85a47060001b9050833f91506000801b821415801561288d5750808214155b9250505091905056fe50726576696f7573207265776172647320706572696f64206d75737420626520636f6d706c657465206265666f7265206368616e67696e6720746865206475726174696f6e20666f7220746865206e657720706572696f64596f75206d757374206265206e6f6d696e61746564206265666f726520796f752063616e20616363657074206f776e65727368697043616e6e6f74207374616b652c207374616b696e6720616d6f756e74206f766572666c6f77696e6743616e6e6f74207374616b65206d6f7265207468616e203225206f6620746865206d6178696d756d207374616b696e6720616d6f756e744f6e6c792074686520636f6e7472616374206f776e6572206d617920706572666f726d207468697320616374696f6e536166654d6174683a206d756c7469706c69636174696f6e206f766572666c6f7743616c6c6572206973206e6f742052657761726473446973747269627574696f6e20636f6e74726163745361666545524332303a204552433230206f7065726174696f6e20646964206e6f742073756363656564a265627a7a72315820dba0d3fceaf8a5bb18e841d4c0d4390a7ac4ecef16d9a9491776679dd857135e64736f6c63430005100032",
  "source": "pragma solidity ^0.5.16;\n\nimport \"openzeppelin-solidity/contracts/math/Math.sol\";\nimport \"openzeppelin-solidity/contracts/math/SafeMath.sol\";\nimport \"openzeppelin-solidity/contracts/token/ERC20/ERC20Detailed.sol\";\nimport \"openzeppelin-solidity/contracts/token/ERC20/SafeERC20.sol\";\nimport \"openzeppelin-solidity/contracts/utils/ReentrancyGuard.sol\";\n\n// Inheritance\nimport \"./interfaces/IStakingRewards.sol\";\nimport \"./RewardsDistributionRecipient.sol\";\n\ncontract StakingRewards is\n    IStakingRewards,\n    RewardsDistributionRecipient,\n    ReentrancyGuard\n{\n    using SafeMath for uint256;\n    using SafeERC20 for IERC20;\n\n    /* ========== STATE VARIABLES ========== */\n\n    IERC20 public rewardsToken;\n    IERC20 public stakingToken;\n    uint256 public periodFinish = 0;\n    uint256 public rewardRate = 0;\n    uint256 public rewardsDuration = 7 days;\n    uint256 public lastUpdateTime;\n    uint256 public rewardPerTokenStored;\n    uint256 public maximumStakingAmount = 100000;\n\n    mapping(address => uint256) public stakedTimes;\n    mapping(address => uint256) public userRewardPerTokenPaid;\n    mapping(address => uint256) public rewards;\n\n    uint256 private _totalSupply;\n    mapping(address => uint256) private _balances;\n\n    /* ========== CONSTRUCTOR ========== */\n\n    constructor(\n        address _owner,\n        address _rewardsDistribution,\n        address _rewardsToken,\n        address _stakingToken\n    ) public Owned(_owner) {\n        rewardsToken = IERC20(_rewardsToken);\n        stakingToken = IERC20(_stakingToken);\n        rewardsDistribution = _rewardsDistribution;\n    }\n\n    function setRules(uint256 _rewardsDuration, uint256 _maximumStakingAmount)\n        public\n    {\n        rewardsDuration = _rewardsDuration;\n        maximumStakingAmount = _maximumStakingAmount;\n    }\n\n    /* ========== VIEWS ========== */\n\n    function totalSupply() external view returns (uint256) {\n        return _totalSupply;\n    }\n\n    function balanceOf(address account) external view returns (uint256) {\n        return _balances[account];\n    }\n\n    function lastTimeRewardApplicable() public view returns (uint256) {\n        return Math.min(block.timestamp, periodFinish);\n    }\n\n    function rewardPerToken() public view returns (uint256) {\n        if (_totalSupply == 0) {\n            return rewardPerTokenStored;\n        }\n        return\n            rewardPerTokenStored.add(\n                lastTimeRewardApplicable()\n                    .sub(lastUpdateTime)\n                    .mul(rewardRate)\n                    .mul(1e18)\n                    .div(_totalSupply)\n            );\n    }\n\n    function earned(address account) public view returns (uint256) {\n        return\n            _balances[account]\n                .mul(rewardPerToken().sub(userRewardPerTokenPaid[account]))\n                .div(1e18)\n                .add(rewards[account]);\n    }\n\n    function getRewardForDuration() external view returns (uint256) {\n        return rewardRate.mul(rewardsDuration);\n    }\n\n    /* ========== MUTATIVE FUNCTIONS ========== */\n\n    function stake(uint256 amount)\n        external\n        nonReentrant\n        updateReward(msg.sender)\n    {\n        require(amount > 0, \"Cannot stake 0\");\n        require(\n            _totalSupply.add(amount) > maximumStakingAmount,\n            \"Cannot stake, staking amount overflowing\"\n        );\n        require(\n            _balances[msg.sender].add(amount) >\n                maximumStakingAmount.mul(2).div(1e1),\n            \"Cannot stake more than 2% of the maximum staking amount\"\n        );\n        _totalSupply = _totalSupply.add(amount);\n        _balances[msg.sender] = _balances[msg.sender].add(amount);\n        stakingToken.safeTransferFrom(msg.sender, address(this), amount);\n        stakedTimes[msg.sender] = block.timestamp;\n        emit Staked(msg.sender, amount);\n    }\n\n    function withdrawAll() public nonReentrant updateReward(msg.sender) {\n        uint256 amount = _balances[msg.sender];\n        _totalSupply = _totalSupply.sub(amount);\n        _balances[msg.sender] = 0;\n        stakingToken.safeTransfer(msg.sender, amount);\n\n        if (\n            block.timestamp < periodFinish &&\n            block.timestamp.sub(stakedTimes[msg.sender]) < 7 days\n        ) {\n            /* =========== CHECK EARLY UNSTAKING ========== */\n            uint256 paneltyAmount = rewards[msg.sender].mul(25).div(1e2);\n            rewards[msg.sender] = rewards[msg.sender].sub(paneltyAmount);\n            rewardRate = rewardRate.add(\n                paneltyAmount.div(periodFinish.sub(block.timestamp))\n            );\n        }\n        emit Withdrawn(msg.sender, amount);\n    }\n\n    function getReward() public nonReentrant updateReward(msg.sender) {\n        require(block.timestamp < periodFinish, \"Pool is not finished.\");\n        uint256 reward = rewards[msg.sender];\n        if (reward > 0) {\n            rewards[msg.sender] = 0;\n            rewardsToken.safeTransfer(msg.sender, reward);\n            emit RewardPaid(msg.sender, reward);\n        }\n    }\n\n    function exit() external {\n        withdrawAll();\n        getReward();\n    }\n\n    /* ========== RESTRICTED FUNCTIONS ========== */\n\n    function notifyRewardAmount(uint256 reward)\n        external\n        onlyRewardsDistribution\n        updateReward(address(0))\n    {\n        if (block.timestamp >= periodFinish) {\n            rewardRate = reward.div(rewardsDuration);\n        } else {\n            uint256 remaining = periodFinish.sub(block.timestamp);\n            uint256 leftover = remaining.mul(rewardRate);\n            rewardRate = reward.add(leftover).div(rewardsDuration);\n        }\n\n        // Ensure the provided reward amount is not more than the balance in the contract.\n        // This keeps the reward rate in the right range, preventing overflows due to\n        // very high values of rewardRate in the earned and rewardsPerToken functions;\n        // Reward + leftover must be less than 2^256 / 10^18 to avoid overflow.\n        uint256 balance = rewardsToken.balanceOf(address(this));\n        require(\n            rewardRate <= balance.div(rewardsDuration),\n            \"Provided reward too high\"\n        );\n\n        lastUpdateTime = block.timestamp;\n        periodFinish = block.timestamp.add(rewardsDuration);\n        emit RewardAdded(reward);\n    }\n\n    function setRewardsDuration(uint256 _rewardsDuration) external onlyOwner {\n        require(\n            periodFinish == 0 || block.timestamp > periodFinish,\n            \"Previous rewards period must be complete before changing the duration for the new period\"\n        );\n        rewardsDuration = _rewardsDuration;\n        emit RewardsDurationUpdated(rewardsDuration);\n    }\n\n    /* ========== MODIFIERS ========== */\n\n    modifier updateReward(address account) {\n        rewardPerTokenStored = rewardPerToken();\n        lastUpdateTime = lastTimeRewardApplicable();\n        if (account != address(0)) {\n            rewards[account] = earned(account);\n            userRewardPerTokenPaid[account] = rewardPerTokenStored;\n        }\n        _;\n    }\n\n    /* ========== EVENTS ========== */\n\n    event RewardAdded(uint256 reward);\n    event Staked(address indexed user, uint256 amount);\n    event Withdrawn(address indexed user, uint256 amount);\n    event RewardPaid(address indexed user, uint256 reward);\n    event RewardsDurationUpdated(uint256 newDuration);\n    event Recovered(address token, uint256 amount);\n}\n",
  "sourcePath": "/Volumes/Work/Blockchain/Phantasma/pharming-smart-contract/contracts/StakingRewards.sol",
  "compiler": {
    "name": "solc",
    "version": "0.5.16+commit.9c3226ce.Emscripten.clang"
  },
  "schemaVersion": "3.2.4",
  "updatedAt": "2020-11-17T01:18:36.708Z",
  "networkType": "ethereum",
  "devdoc": {
    "methods": {}
  },
  "userdoc": {
    "methods": {}
  }
}