{
  "contractName": "StakingRewards",
  "abi": [
    {
      "inputs": [
        {
          "internalType": "address",
          "name": "_owner",
          "type": "address"
        },
        {
          "internalType": "address",
          "name": "_rewardsDistribution",
          "type": "address"
        },
        {
          "internalType": "address",
          "name": "_rewardsToken",
          "type": "address"
        },
        {
          "internalType": "address",
          "name": "_stakingToken",
          "type": "address"
        }
      ],
      "payable": false,
      "stateMutability": "nonpayable",
      "type": "constructor"
    },
    {
      "anonymous": false,
      "inputs": [
        {
          "indexed": false,
          "internalType": "address",
          "name": "oldOwner",
          "type": "address"
        },
        {
          "indexed": false,
          "internalType": "address",
          "name": "newOwner",
          "type": "address"
        }
      ],
      "name": "OwnerChanged",
      "type": "event"
    },
    {
      "anonymous": false,
      "inputs": [
        {
          "indexed": false,
          "internalType": "address",
          "name": "newOwner",
          "type": "address"
        }
      ],
      "name": "OwnerNominated",
      "type": "event"
    },
    {
      "anonymous": false,
      "inputs": [
        {
          "indexed": false,
          "internalType": "address",
          "name": "token",
          "type": "address"
        },
        {
          "indexed": false,
          "internalType": "uint256",
          "name": "amount",
          "type": "uint256"
        }
      ],
      "name": "Recovered",
      "type": "event"
    },
    {
      "anonymous": false,
      "inputs": [
        {
          "indexed": false,
          "internalType": "uint256",
          "name": "reward",
          "type": "uint256"
        }
      ],
      "name": "RewardAdded",
      "type": "event"
    },
    {
      "anonymous": false,
      "inputs": [
        {
          "indexed": true,
          "internalType": "address",
          "name": "user",
          "type": "address"
        },
        {
          "indexed": false,
          "internalType": "uint256",
          "name": "reward",
          "type": "uint256"
        }
      ],
      "name": "RewardPaid",
      "type": "event"
    },
    {
      "anonymous": false,
      "inputs": [
        {
          "indexed": false,
          "internalType": "uint256",
          "name": "newDuration",
          "type": "uint256"
        }
      ],
      "name": "RewardsDurationUpdated",
      "type": "event"
    },
    {
      "anonymous": false,
      "inputs": [
        {
          "indexed": true,
          "internalType": "address",
          "name": "user",
          "type": "address"
        },
        {
          "indexed": false,
          "internalType": "uint256",
          "name": "amount",
          "type": "uint256"
        }
      ],
      "name": "Staked",
      "type": "event"
    },
    {
      "anonymous": false,
      "inputs": [
        {
          "indexed": true,
          "internalType": "address",
          "name": "user",
          "type": "address"
        },
        {
          "indexed": false,
          "internalType": "uint256",
          "name": "amount",
          "type": "uint256"
        }
      ],
      "name": "Withdrawn",
      "type": "event"
    },
    {
      "constant": false,
      "inputs": [],
      "name": "acceptOwnership",
      "outputs": [],
      "payable": false,
      "stateMutability": "nonpayable",
      "type": "function"
    },
    {
      "constant": true,
      "inputs": [],
      "name": "lastUpdateTime",
      "outputs": [
        {
          "internalType": "uint256",
          "name": "",
          "type": "uint256"
        }
      ],
      "payable": false,
      "stateMutability": "view",
      "type": "function"
    },
    {
      "constant": true,
      "inputs": [],
      "name": "maximumPercentagePerWallet",
      "outputs": [
        {
          "internalType": "uint256",
          "name": "",
          "type": "uint256"
        }
      ],
      "payable": false,
      "stateMutability": "view",
      "type": "function"
    },
    {
      "constant": true,
      "inputs": [],
      "name": "maximumStakingAmount",
      "outputs": [
        {
          "internalType": "uint256",
          "name": "",
          "type": "uint256"
        }
      ],
      "payable": false,
      "stateMutability": "view",
      "type": "function"
    },
    {
      "constant": false,
      "inputs": [
        {
          "internalType": "address",
          "name": "_owner",
          "type": "address"
        }
      ],
      "name": "nominateNewOwner",
      "outputs": [],
      "payable": false,
      "stateMutability": "nonpayable",
      "type": "function"
    },
    {
      "constant": true,
      "inputs": [],
      "name": "nominatedOwner",
      "outputs": [
        {
          "internalType": "address",
          "name": "",
          "type": "address"
        }
      ],
      "payable": false,
      "stateMutability": "view",
      "type": "function"
    },
    {
      "constant": true,
      "inputs": [],
      "name": "owner",
      "outputs": [
        {
          "internalType": "address",
          "name": "",
          "type": "address"
        }
      ],
      "payable": false,
      "stateMutability": "view",
      "type": "function"
    },
    {
      "constant": true,
      "inputs": [],
      "name": "periodFinish",
      "outputs": [
        {
          "internalType": "uint256",
          "name": "",
          "type": "uint256"
        }
      ],
      "payable": false,
      "stateMutability": "view",
      "type": "function"
    },
    {
      "constant": true,
      "inputs": [],
      "name": "rewardPerTokenStored",
      "outputs": [
        {
          "internalType": "uint256",
          "name": "",
          "type": "uint256"
        }
      ],
      "payable": false,
      "stateMutability": "view",
      "type": "function"
    },
    {
      "constant": true,
      "inputs": [],
      "name": "rewardRate",
      "outputs": [
        {
          "internalType": "uint256",
          "name": "",
          "type": "uint256"
        }
      ],
      "payable": false,
      "stateMutability": "view",
      "type": "function"
    },
    {
      "constant": true,
      "inputs": [
        {
          "internalType": "address",
          "name": "",
          "type": "address"
        }
      ],
      "name": "rewards",
      "outputs": [
        {
          "internalType": "uint256",
          "name": "",
          "type": "uint256"
        }
      ],
      "payable": false,
      "stateMutability": "view",
      "type": "function"
    },
    {
      "constant": true,
      "inputs": [],
      "name": "rewardsDistribution",
      "outputs": [
        {
          "internalType": "address",
          "name": "",
          "type": "address"
        }
      ],
      "payable": false,
      "stateMutability": "view",
      "type": "function"
    },
    {
      "constant": true,
      "inputs": [],
      "name": "rewardsDuration",
      "outputs": [
        {
          "internalType": "uint256",
          "name": "",
          "type": "uint256"
        }
      ],
      "payable": false,
      "stateMutability": "view",
      "type": "function"
    },
    {
      "constant": true,
      "inputs": [],
      "name": "rewardsToken",
      "outputs": [
        {
          "internalType": "contract IERC20",
          "name": "",
          "type": "address"
        }
      ],
      "payable": false,
      "stateMutability": "view",
      "type": "function"
    },
    {
      "constant": false,
      "inputs": [
        {
          "internalType": "address",
          "name": "_rewardsDistribution",
          "type": "address"
        }
      ],
      "name": "setRewardsDistribution",
      "outputs": [],
      "payable": false,
      "stateMutability": "nonpayable",
      "type": "function"
    },
    {
      "constant": true,
      "inputs": [
        {
          "internalType": "address",
          "name": "",
          "type": "address"
        }
      ],
      "name": "stakedTimes",
      "outputs": [
        {
          "internalType": "uint256",
          "name": "",
          "type": "uint256"
        }
      ],
      "payable": false,
      "stateMutability": "view",
      "type": "function"
    },
    {
      "constant": true,
      "inputs": [
        {
          "internalType": "address",
          "name": "",
          "type": "address"
        }
      ],
      "name": "stakedTokenWithdrawableDates",
      "outputs": [
        {
          "internalType": "uint256",
          "name": "",
          "type": "uint256"
        }
      ],
      "payable": false,
      "stateMutability": "view",
      "type": "function"
    },
    {
      "constant": true,
      "inputs": [],
      "name": "stakingToken",
      "outputs": [
        {
          "internalType": "contract IERC20",
          "name": "",
          "type": "address"
        }
      ],
      "payable": false,
      "stateMutability": "view",
      "type": "function"
    },
    {
      "constant": true,
      "inputs": [],
      "name": "unstakePenaltyDays",
      "outputs": [
        {
          "internalType": "uint256",
          "name": "",
          "type": "uint256"
        }
      ],
      "payable": false,
      "stateMutability": "view",
      "type": "function"
    },
    {
      "constant": true,
      "inputs": [],
      "name": "unstakePenaltyPercent",
      "outputs": [
        {
          "internalType": "uint256",
          "name": "",
          "type": "uint256"
        }
      ],
      "payable": false,
      "stateMutability": "view",
      "type": "function"
    },
    {
      "constant": true,
      "inputs": [
        {
          "internalType": "address",
          "name": "",
          "type": "address"
        }
      ],
      "name": "userRewardPerTokenPaid",
      "outputs": [
        {
          "internalType": "uint256",
          "name": "",
          "type": "uint256"
        }
      ],
      "payable": false,
      "stateMutability": "view",
      "type": "function"
    },
    {
      "constant": false,
      "inputs": [
        {
          "internalType": "uint256",
          "name": "_rewardsDuration",
          "type": "uint256"
        },
        {
          "internalType": "uint256",
          "name": "_maximumStakingAmount",
          "type": "uint256"
        },
        {
          "internalType": "uint256",
          "name": "_maximumPercentagePerWallet",
          "type": "uint256"
        },
        {
          "internalType": "uint256",
          "name": "_unstakePenaltyPercent",
          "type": "uint256"
        },
        {
          "internalType": "uint256",
          "name": "_unstakePenaltyDays",
          "type": "uint256"
        }
      ],
      "name": "setRules",
      "outputs": [],
      "payable": false,
      "stateMutability": "nonpayable",
      "type": "function"
    },
    {
      "constant": true,
      "inputs": [],
      "name": "totalSupply",
      "outputs": [
        {
          "internalType": "uint256",
          "name": "",
          "type": "uint256"
        }
      ],
      "payable": false,
      "stateMutability": "view",
      "type": "function"
    },
    {
      "constant": true,
      "inputs": [
        {
          "internalType": "address",
          "name": "account",
          "type": "address"
        }
      ],
      "name": "balanceOf",
      "outputs": [
        {
          "internalType": "uint256",
          "name": "",
          "type": "uint256"
        }
      ],
      "payable": false,
      "stateMutability": "view",
      "type": "function"
    },
    {
      "constant": true,
      "inputs": [],
      "name": "lastTimeRewardApplicable",
      "outputs": [
        {
          "internalType": "uint256",
          "name": "",
          "type": "uint256"
        }
      ],
      "payable": false,
      "stateMutability": "view",
      "type": "function"
    },
    {
      "constant": true,
      "inputs": [],
      "name": "rewardPerToken",
      "outputs": [
        {
          "internalType": "uint256",
          "name": "",
          "type": "uint256"
        }
      ],
      "payable": false,
      "stateMutability": "view",
      "type": "function"
    },
    {
      "constant": true,
      "inputs": [
        {
          "internalType": "address",
          "name": "account",
          "type": "address"
        }
      ],
      "name": "earned",
      "outputs": [
        {
          "internalType": "uint256",
          "name": "",
          "type": "uint256"
        }
      ],
      "payable": false,
      "stateMutability": "view",
      "type": "function"
    },
    {
      "constant": true,
      "inputs": [],
      "name": "getRewardForDuration",
      "outputs": [
        {
          "internalType": "uint256",
          "name": "",
          "type": "uint256"
        }
      ],
      "payable": false,
      "stateMutability": "view",
      "type": "function"
    },
    {
      "constant": true,
      "inputs": [
        {
          "internalType": "address",
          "name": "account",
          "type": "address"
        }
      ],
      "name": "getStakedTokenWithdrawableDates",
      "outputs": [
        {
          "internalType": "uint256",
          "name": "",
          "type": "uint256"
        }
      ],
      "payable": false,
      "stateMutability": "view",
      "type": "function"
    },
    {
      "constant": false,
      "inputs": [
        {
          "internalType": "uint256",
          "name": "amount",
          "type": "uint256"
        }
      ],
      "name": "stake",
      "outputs": [],
      "payable": false,
      "stateMutability": "nonpayable",
      "type": "function"
    },
    {
      "constant": false,
      "inputs": [],
      "name": "withdrawAll",
      "outputs": [],
      "payable": false,
      "stateMutability": "nonpayable",
      "type": "function"
    },
    {
      "constant": false,
      "inputs": [],
      "name": "getReward",
      "outputs": [],
      "payable": false,
      "stateMutability": "nonpayable",
      "type": "function"
    },
    {
      "constant": false,
      "inputs": [],
      "name": "exit",
      "outputs": [],
      "payable": false,
      "stateMutability": "nonpayable",
      "type": "function"
    },
    {
      "constant": false,
      "inputs": [
        {
          "internalType": "uint256",
          "name": "reward",
          "type": "uint256"
        }
      ],
      "name": "notifyRewardAmount",
      "outputs": [],
      "payable": false,
      "stateMutability": "nonpayable",
      "type": "function"
    },
    {
      "constant": false,
      "inputs": [
        {
          "internalType": "uint256",
          "name": "_rewardsDuration",
          "type": "uint256"
        }
      ],
      "name": "setRewardsDuration",
      "outputs": [],
      "payable": false,
      "stateMutability": "nonpayable",
      "type": "function"
    }
  ],
  "bytecode": "0x60806040526000600655600060075562093a80600855620186a0600b556019600c556203f480600d556002600e5534801561003957600080fd5b506040516132083803806132088339818101604052608081101561005c57600080fd5b810190808051906020019092919080519060200190929190805190602001909291908051906020019092919050505083600073ffffffffffffffffffffffffffffffffffffffff168173ffffffffffffffffffffffffffffffffffffffff16141561012f576040517f08c379a00000000000000000000000000000000000000000000000000000000081526004018080602001828103825260198152602001807f4f776e657220616464726573732063616e6e6f7420626520300000000000000081525060200191505060405180910390fd5b806000806101000a81548173ffffffffffffffffffffffffffffffffffffffff021916908373ffffffffffffffffffffffffffffffffffffffff1602179055507fb532073b38c83145e3e5135377a08bf9aab55bc0fd7c1179cd4fb995d2a5159c600082604051808373ffffffffffffffffffffffffffffffffffffffff1673ffffffffffffffffffffffffffffffffffffffff1681526020018273ffffffffffffffffffffffffffffffffffffffff1673ffffffffffffffffffffffffffffffffffffffff1681526020019250505060405180910390a150600160038190555081600460006101000a81548173ffffffffffffffffffffffffffffffffffffffff021916908373ffffffffffffffffffffffffffffffffffffffff16021790555080600560006101000a81548173ffffffffffffffffffffffffffffffffffffffff021916908373ffffffffffffffffffffffffffffffffffffffff16021790555082600260006101000a81548173ffffffffffffffffffffffffffffffffffffffff021916908373ffffffffffffffffffffffffffffffffffffffff16021790555050505050612f22806102e66000396000f3fe608060405234801561001057600080fd5b50600436106102105760003560e01c806379ba509711610125578063c8f33c91116100ad578063d26cf3ad1161007c578063d26cf3ad14610811578063df136d6514610869578063e9fad8ee14610887578063ebe2b12b14610891578063fce178bb146108af57610210565b8063c8f33c911461075d578063cc1a378f1461077b578063cd3daf9d146107a9578063d1af0c7d146107c757610210565b80638b876347116100f45780638b876347146106515780638d98d5b5146106a95780638da5cb5b146106c7578063a694fc3a14610711578063c1281d531461073f57610210565b806379ba5097146106015780637b0a47ee1461060b57806380faa57d14610629578063853828b61461064757610210565b8063386a9525116101a857806353a47bb71161017757806353a47bb71461049f5780636ad2fb77146104e95780636ca331091461054157806370a082311461055f57806372f702f3146105b757610210565b8063386a9525146103ff5780633c6b16ab1461041d5780633d18b9121461044b5780633fc6df6e1461045557610210565b806318160ddd116101e457806318160ddd14610361578063197621431461037f5780631c1f78eb146103c357806320218c41146103e157610210565b80628cc262146102155780630700037d1461026d5780631627540c146102c5578063169a772814610309575b600080fd5b6102576004803603602081101561022b57600080fd5b81019080803573ffffffffffffffffffffffffffffffffffffffff169060200190929190505050610905565b6040518082815260200191505060405180910390f35b6102af6004803603602081101561028357600080fd5b81019080803573ffffffffffffffffffffffffffffffffffffffff169060200190929190505050610a23565b6040518082815260200191505060405180910390f35b610307600480360360208110156102db57600080fd5b81019080803573ffffffffffffffffffffffffffffffffffffffff169060200190929190505050610a3b565b005b61034b6004803603602081101561031f57600080fd5b81019080803573ffffffffffffffffffffffffffffffffffffffff169060200190929190505050610b87565b6040518082815260200191505060405180910390f35b610369610b9f565b6040518082815260200191505060405180910390f35b6103c16004803603602081101561039557600080fd5b81019080803573ffffffffffffffffffffffffffffffffffffffff169060200190929190505050610ba9565b005b6103cb610c92565b6040518082815260200191505060405180910390f35b6103e9610cb0565b6040518082815260200191505060405180910390f35b610407610cb6565b6040518082815260200191505060405180910390f35b6104496004803603602081101561043357600080fd5b8101908080359060200190929190505050610cbc565b005b61045361109a565b005b61045d6113b7565b604051808273ffffffffffffffffffffffffffffffffffffffff1673ffffffffffffffffffffffffffffffffffffffff16815260200191505060405180910390f35b6104a76113dd565b604051808273ffffffffffffffffffffffffffffffffffffffff1673ffffffffffffffffffffffffffffffffffffffff16815260200191505060405180910390f35b61052b600480360360208110156104ff57600080fd5b81019080803573ffffffffffffffffffffffffffffffffffffffff169060200190929190505050611403565b6040518082815260200191505060405180910390f35b61054961141b565b6040518082815260200191505060405180910390f35b6105a16004803603602081101561057557600080fd5b81019080803573ffffffffffffffffffffffffffffffffffffffff169060200190929190505050611421565b6040518082815260200191505060405180910390f35b6105bf61146a565b604051808273ffffffffffffffffffffffffffffffffffffffff1673ffffffffffffffffffffffffffffffffffffffff16815260200191505060405180910390f35b610609611490565b005b6106136116b6565b6040518082815260200191505060405180910390f35b6106316116bc565b6040518082815260200191505060405180910390f35b61064f6116cf565b005b6106936004803603602081101561066757600080fd5b81019080803573ffffffffffffffffffffffffffffffffffffffff169060200190929190505050611d8a565b6040518082815260200191505060405180910390f35b6106b1611da2565b6040518082815260200191505060405180910390f35b6106cf611da8565b604051808273ffffffffffffffffffffffffffffffffffffffff1673ffffffffffffffffffffffffffffffffffffffff16815260200191505060405180910390f35b61073d6004803603602081101561072757600080fd5b8101908080359060200190929190505050611dcd565b005b61074761230f565b6040518082815260200191505060405180910390f35b610765612315565b6040518082815260200191505060405180910390f35b6107a76004803603602081101561079157600080fd5b810190808035906020019092919050505061231b565b005b6107b161246a565b6040518082815260200191505060405180910390f35b6107cf6124f8565b604051808273ffffffffffffffffffffffffffffffffffffffff1673ffffffffffffffffffffffffffffffffffffffff16815260200191505060405180910390f35b6108536004803603602081101561082757600080fd5b81019080803573ffffffffffffffffffffffffffffffffffffffff16906020019092919050505061251e565b6040518082815260200191505060405180910390f35b610871612567565b6040518082815260200191505060405180910390f35b61088f61256d565b005b61089961257f565b6040518082815260200191505060405180910390f35b610903600480360360a08110156108c557600080fd5b810190808035906020019092919080359060200190929190803590602001909291908035906020019092919080359060200190929190505050612585565b005b6000610a1c601260008473ffffffffffffffffffffffffffffffffffffffff1673ffffffffffffffffffffffffffffffffffffffff16815260200190815260200160002054610a0e670de0b6b3a7640000610a006109b2601160008973ffffffffffffffffffffffffffffffffffffffff1673ffffffffffffffffffffffffffffffffffffffff168152602001908152602001600020546109a461246a565b6125af90919063ffffffff16565b601460008973ffffffffffffffffffffffffffffffffffffffff1673ffffffffffffffffffffffffffffffffffffffff168152602001908152602001600020546125f990919063ffffffff16565b61267f90919063ffffffff16565b6126c990919063ffffffff16565b9050919050565b60126020528060005260406000206000915090505481565b6000809054906101000a900473ffffffffffffffffffffffffffffffffffffffff1673ffffffffffffffffffffffffffffffffffffffff163373ffffffffffffffffffffffffffffffffffffffff1614610ae0576040517f08c379a000000000000000000000000000000000000000000000000000000000815260040180806020018281038252602f815260200180612e4a602f913960400191505060405180910390fd5b80600160006101000a81548173ffffffffffffffffffffffffffffffffffffffff021916908373ffffffffffffffffffffffffffffffffffffffff1602179055507f906a1c6bd7e3091ea86693dd029a831c19049ce77f1dce2ce0bab1cacbabce2281604051808273ffffffffffffffffffffffffffffffffffffffff1673ffffffffffffffffffffffffffffffffffffffff16815260200191505060405180910390a150565b60106020528060005260406000206000915090505481565b6000601354905090565b6000809054906101000a900473ffffffffffffffffffffffffffffffffffffffff1673ffffffffffffffffffffffffffffffffffffffff163373ffffffffffffffffffffffffffffffffffffffff1614610c4e576040517f08c379a000000000000000000000000000000000000000000000000000000000815260040180806020018281038252602f815260200180612e4a602f913960400191505060405180910390fd5b80600260006101000a81548173ffffffffffffffffffffffffffffffffffffffff021916908373ffffffffffffffffffffffffffffffffffffffff16021790555050565b6000610cab6008546007546125f990919063ffffffff16565b905090565b600b5481565b60085481565b600260009054906101000a900473ffffffffffffffffffffffffffffffffffffffff1673ffffffffffffffffffffffffffffffffffffffff163373ffffffffffffffffffffffffffffffffffffffff1614610d62576040517f08c379a000000000000000000000000000000000000000000000000000000000815260040180806020018281038252602a815260200180612e9a602a913960400191505060405180910390fd5b6000610d6c61246a565b600a81905550610d7a6116bc565b600981905550600073ffffffffffffffffffffffffffffffffffffffff168173ffffffffffffffffffffffffffffffffffffffff1614610e4757610dbd81610905565b601260008373ffffffffffffffffffffffffffffffffffffffff1673ffffffffffffffffffffffffffffffffffffffff16815260200190815260200160002081905550600a54601160008373ffffffffffffffffffffffffffffffffffffffff1673ffffffffffffffffffffffffffffffffffffffff168152602001908152602001600020819055505b6006544210610e7057610e656008548361267f90919063ffffffff16565b600781905550610ed2565b6000610e87426006546125af90919063ffffffff16565b90506000610ea0600754836125f990919063ffffffff16565b9050610ec9600854610ebb83876126c990919063ffffffff16565b61267f90919063ffffffff16565b60078190555050505b6000600460009054906101000a900473ffffffffffffffffffffffffffffffffffffffff1673ffffffffffffffffffffffffffffffffffffffff166370a08231306040518263ffffffff1660e01b8152600401808273ffffffffffffffffffffffffffffffffffffffff1673ffffffffffffffffffffffffffffffffffffffff16815260200191505060206040518083038186803b158015610f7357600080fd5b505afa158015610f87573d6000803e3d6000fd5b505050506040513d6020811015610f9d57600080fd5b81019080805190602001909291905050509050610fc56008548261267f90919063ffffffff16565b600754111561103c576040517f08c379a00000000000000000000000000000000000000000000000000000000081526004018080602001828103825260188152602001807f50726f76696465642072657761726420746f6f2068696768000000000000000081525060200191505060405180910390fd5b42600981905550611058600854426126c990919063ffffffff16565b6006819055507fde88a922e0d3b88b24e9623efeb464919c6bf9f66857a65e2bfcf2ce87a9433d836040518082815260200191505060405180910390a1505050565b600160036000828254019250508190555060006003549050336110bb61246a565b600a819055506110c96116bc565b600981905550600073ffffffffffffffffffffffffffffffffffffffff168173ffffffffffffffffffffffffffffffffffffffff16146111965761110c81610905565b601260008373ffffffffffffffffffffffffffffffffffffffff1673ffffffffffffffffffffffffffffffffffffffff16815260200190815260200160002081905550600a54601160008373ffffffffffffffffffffffffffffffffffffffff1673ffffffffffffffffffffffffffffffffffffffff168152602001908152602001600020819055505b600654421061120d576040517f08c379a00000000000000000000000000000000000000000000000000000000081526004018080602001828103825260158152602001807f506f6f6c206973206e6f742066696e69736865642e000000000000000000000081525060200191505060405180910390fd5b6000601260003373ffffffffffffffffffffffffffffffffffffffff1673ffffffffffffffffffffffffffffffffffffffff168152602001908152602001600020549050600081111561133b576000601260003373ffffffffffffffffffffffffffffffffffffffff1673ffffffffffffffffffffffffffffffffffffffff168152602001908152602001600020819055506112ec3382600460009054906101000a900473ffffffffffffffffffffffffffffffffffffffff1673ffffffffffffffffffffffffffffffffffffffff166127519092919063ffffffff16565b3373ffffffffffffffffffffffffffffffffffffffff167fe2403640ba68fed3a2f88b7557551d1993f84b99bb10ff833f0cf8db0c5e0486826040518082815260200191505060405180910390a25b505060035481146113b4576040517f08c379a000000000000000000000000000000000000000000000000000000000815260040180806020018281038252601f8152602001807f5265656e7472616e637947756172643a207265656e7472616e742063616c6c0081525060200191505060405180910390fd5b50565b600260009054906101000a900473ffffffffffffffffffffffffffffffffffffffff1681565b600160009054906101000a900473ffffffffffffffffffffffffffffffffffffffff1681565b600f6020528060005260406000206000915090505481565b600c5481565b6000601460008373ffffffffffffffffffffffffffffffffffffffff1673ffffffffffffffffffffffffffffffffffffffff168152602001908152602001600020549050919050565b600560009054906101000a900473ffffffffffffffffffffffffffffffffffffffff1681565b600160009054906101000a900473ffffffffffffffffffffffffffffffffffffffff1673ffffffffffffffffffffffffffffffffffffffff163373ffffffffffffffffffffffffffffffffffffffff1614611536576040517f08c379a0000000000000000000000000000000000000000000000000000000008152600401808060200182810382526035815260200180612db66035913960400191505060405180910390fd5b7fb532073b38c83145e3e5135377a08bf9aab55bc0fd7c1179cd4fb995d2a5159c6000809054906101000a900473ffffffffffffffffffffffffffffffffffffffff16600160009054906101000a900473ffffffffffffffffffffffffffffffffffffffff16604051808373ffffffffffffffffffffffffffffffffffffffff1673ffffffffffffffffffffffffffffffffffffffff1681526020018273ffffffffffffffffffffffffffffffffffffffff1673ffffffffffffffffffffffffffffffffffffffff1681526020019250505060405180910390a1600160009054906101000a900473ffffffffffffffffffffffffffffffffffffffff166000806101000a81548173ffffffffffffffffffffffffffffffffffffffff021916908373ffffffffffffffffffffffffffffffffffffffff1602179055506000600160006101000a81548173ffffffffffffffffffffffffffffffffffffffff021916908373ffffffffffffffffffffffffffffffffffffffff160217905550565b60075481565b60006116ca42600654612822565b905090565b600160036000828254019250508190555060006003549050336116f061246a565b600a819055506116fe6116bc565b600981905550600073ffffffffffffffffffffffffffffffffffffffff168173ffffffffffffffffffffffffffffffffffffffff16146117cb5761174181610905565b601260008373ffffffffffffffffffffffffffffffffffffffff1673ffffffffffffffffffffffffffffffffffffffff16815260200190815260200160002081905550600a54601160008373ffffffffffffffffffffffffffffffffffffffff1673ffffffffffffffffffffffffffffffffffffffff168152602001908152602001600020819055505b600654421015611b8757601060003373ffffffffffffffffffffffffffffffffffffffff1673ffffffffffffffffffffffffffffffffffffffff16815260200190815260200160002054600f60003373ffffffffffffffffffffffffffffffffffffffff1673ffffffffffffffffffffffffffffffffffffffff1681526020019081526020016000205414156119fa5760006118c460646118b6600c54601260003373ffffffffffffffffffffffffffffffffffffffff1673ffffffffffffffffffffffffffffffffffffffff168152602001908152602001600020546125f990919063ffffffff16565b61267f90919063ffffffff16565b905061191881601260003373ffffffffffffffffffffffffffffffffffffffff1673ffffffffffffffffffffffffffffffffffffffff168152602001908152602001600020546125af90919063ffffffff16565b601260003373ffffffffffffffffffffffffffffffffffffffff1673ffffffffffffffffffffffffffffffffffffffff16815260200190815260200160002081905550611996611985611976426006546125af90919063ffffffff16565b8361267f90919063ffffffff16565b6007546126c990919063ffffffff16565b6007819055506119b1600d54426126c990919063ffffffff16565b601060003373ffffffffffffffffffffffffffffffffffffffff1673ffffffffffffffffffffffffffffffffffffffff1681526020019081526020016000208190555050611b82565b601060003373ffffffffffffffffffffffffffffffffffffffff1673ffffffffffffffffffffffffffffffffffffffff168152602001908152602001600020544210611b81576000601460003373ffffffffffffffffffffffffffffffffffffffff1673ffffffffffffffffffffffffffffffffffffffff168152602001908152602001600020549050611a99816013546125af90919063ffffffff16565b6013819055506000601460003373ffffffffffffffffffffffffffffffffffffffff1673ffffffffffffffffffffffffffffffffffffffff16815260200190815260200160002081905550611b313382600560009054906101000a900473ffffffffffffffffffffffffffffffffffffffff1673ffffffffffffffffffffffffffffffffffffffff166127519092919063ffffffff16565b3373ffffffffffffffffffffffffffffffffffffffff167f7084f5476618d8e60b11ef0d7d3f06914655adb8793e28ff7f018d4c76d505d5826040518082815260200191505060405180910390a2505b5b611d0f565b601060003373ffffffffffffffffffffffffffffffffffffffff1673ffffffffffffffffffffffffffffffffffffffff168152602001908152602001600020544210611d0e576000601460003373ffffffffffffffffffffffffffffffffffffffff1673ffffffffffffffffffffffffffffffffffffffff168152602001908152602001600020549050611c26816013546125af90919063ffffffff16565b6013819055506000601460003373ffffffffffffffffffffffffffffffffffffffff1673ffffffffffffffffffffffffffffffffffffffff16815260200190815260200160002081905550611cbe3382600560009054906101000a900473ffffffffffffffffffffffffffffffffffffffff1673ffffffffffffffffffffffffffffffffffffffff166127519092919063ffffffff16565b3373ffffffffffffffffffffffffffffffffffffffff167f7084f5476618d8e60b11ef0d7d3f06914655adb8793e28ff7f018d4c76d505d5826040518082815260200191505060405180910390a2505b5b506003548114611d87576040517f08c379a000000000000000000000000000000000000000000000000000000000815260040180806020018281038252601f8152602001807f5265656e7472616e637947756172643a207265656e7472616e742063616c6c0081525060200191505060405180910390fd5b50565b60116020528060005260406000206000915090505481565b600e5481565b6000809054906101000a900473ffffffffffffffffffffffffffffffffffffffff1681565b60016003600082825401925050819055506000600354905033611dee61246a565b600a81905550611dfc6116bc565b600981905550600073ffffffffffffffffffffffffffffffffffffffff168173ffffffffffffffffffffffffffffffffffffffff1614611ec957611e3f81610905565b601260008373ffffffffffffffffffffffffffffffffffffffff1673ffffffffffffffffffffffffffffffffffffffff16815260200190815260200160002081905550600a54601160008373ffffffffffffffffffffffffffffffffffffffff1673ffffffffffffffffffffffffffffffffffffffff168152602001908152602001600020819055505b60008311611f3f576040517f08c379a000000000000000000000000000000000000000000000000000000000815260040180806020018281038252600e8152602001807f43616e6e6f74207374616b65203000000000000000000000000000000000000081525060200191505060405180910390fd5b600b54611f57846013546126c990919063ffffffff16565b11611fad576040517f08c379a0000000000000000000000000000000000000000000000000000000008152600401808060200182810382526028815260200180612deb6028913960400191505060405180910390fd5b611fd76064611fc9600e54600b546125f990919063ffffffff16565b61267f90919063ffffffff16565b61202984601460003373ffffffffffffffffffffffffffffffffffffffff1673ffffffffffffffffffffffffffffffffffffffff168152602001908152602001600020546126c990919063ffffffff16565b1161207f576040517f08c379a0000000000000000000000000000000000000000000000000000000008152600401808060200182810382526037815260200180612e136037913960400191505060405180910390fd5b612094836013546126c990919063ffffffff16565b6013819055506120ec83601460003373ffffffffffffffffffffffffffffffffffffffff1673ffffffffffffffffffffffffffffffffffffffff168152602001908152602001600020546126c990919063ffffffff16565b601460003373ffffffffffffffffffffffffffffffffffffffff1673ffffffffffffffffffffffffffffffffffffffff1681526020019081526020016000208190555061217e333085600560009054906101000a900473ffffffffffffffffffffffffffffffffffffffff1673ffffffffffffffffffffffffffffffffffffffff1661283b909392919063ffffffff16565b42600f60003373ffffffffffffffffffffffffffffffffffffffff1673ffffffffffffffffffffffffffffffffffffffff16815260200190815260200160002081905550600f60003373ffffffffffffffffffffffffffffffffffffffff1673ffffffffffffffffffffffffffffffffffffffff16815260200190815260200160002054601060003373ffffffffffffffffffffffffffffffffffffffff1673ffffffffffffffffffffffffffffffffffffffff168152602001908152602001600020819055503373ffffffffffffffffffffffffffffffffffffffff167f9e71bc8eea02a63969f509818f2dafb9254532904319f9dbda79b67bd34a5f3d846040518082815260200191505060405180910390a250600354811461230b576040517f08c379a000000000000000000000000000000000000000000000000000000000815260040180806020018281038252601f8152602001807f5265656e7472616e637947756172643a207265656e7472616e742063616c6c0081525060200191505060405180910390fd5b5050565b600d5481565b60095481565b6000809054906101000a900473ffffffffffffffffffffffffffffffffffffffff1673ffffffffffffffffffffffffffffffffffffffff163373ffffffffffffffffffffffffffffffffffffffff16146123c0576040517f08c379a000000000000000000000000000000000000000000000000000000000815260040180806020018281038252602f815260200180612e4a602f913960400191505060405180910390fd5b600060065414806123d2575060065442115b612427576040517f08c379a0000000000000000000000000000000000000000000000000000000008152600401808060200182810382526058815260200180612d5e6058913960600191505060405180910390fd5b806008819055507ffb46ca5a5e06d4540d6387b930a7c978bce0db5f449ec6b3f5d07c6e1d44f2d36008546040518082815260200191505060405180910390a150565b600080601354141561248057600a5490506124f5565b6124f26124e16013546124d3670de0b6b3a76400006124c56007546124b76009546124a96116bc565b6125af90919063ffffffff16565b6125f990919063ffffffff16565b6125f990919063ffffffff16565b61267f90919063ffffffff16565b600a546126c990919063ffffffff16565b90505b90565b600460009054906101000a900473ffffffffffffffffffffffffffffffffffffffff1681565b6000601060008373ffffffffffffffffffffffffffffffffffffffff1673ffffffffffffffffffffffffffffffffffffffff168152602001908152602001600020549050919050565b600a5481565b6125756116cf565b61257d61109a565b565b60065481565b8460088190555083600b8190555082600e8190555081600c8190555080600d819055505050505050565b60006125f183836040518060400160405280601e81526020017f536166654d6174683a207375627472616374696f6e206f766572666c6f770000815250612941565b905092915050565b60008083141561260c5760009050612679565b600082840290508284828161261d57fe5b0414612674576040517f08c379a0000000000000000000000000000000000000000000000000000000008152600401808060200182810382526021815260200180612e796021913960400191505060405180910390fd5b809150505b92915050565b60006126c183836040518060400160405280601a81526020017f536166654d6174683a206469766973696f6e206279207a65726f000000000000815250612a01565b905092915050565b600080828401905083811015612747576040517f08c379a000000000000000000000000000000000000000000000000000000000815260040180806020018281038252601b8152602001807f536166654d6174683a206164646974696f6e206f766572666c6f77000000000081525060200191505060405180910390fd5b8091505092915050565b61281d838473ffffffffffffffffffffffffffffffffffffffff1663a9059cbb905060e01b8484604051602401808373ffffffffffffffffffffffffffffffffffffffff1673ffffffffffffffffffffffffffffffffffffffff16815260200182815260200192505050604051602081830303815290604052907bffffffffffffffffffffffffffffffffffffffffffffffffffffffff19166020820180517bffffffffffffffffffffffffffffffffffffffffffffffffffffffff8381831617835250505050612ac7565b505050565b60008183106128315781612833565b825b905092915050565b61293b848573ffffffffffffffffffffffffffffffffffffffff166323b872dd905060e01b858585604051602401808473ffffffffffffffffffffffffffffffffffffffff1673ffffffffffffffffffffffffffffffffffffffff1681526020018373ffffffffffffffffffffffffffffffffffffffff1673ffffffffffffffffffffffffffffffffffffffff1681526020018281526020019350505050604051602081830303815290604052907bffffffffffffffffffffffffffffffffffffffffffffffffffffffff19166020820180517bffffffffffffffffffffffffffffffffffffffffffffffffffffffff8381831617835250505050612ac7565b50505050565b60008383111582906129ee576040517f08c379a00000000000000000000000000000000000000000000000000000000081526004018080602001828103825283818151815260200191508051906020019080838360005b838110156129b3578082015181840152602081019050612998565b50505050905090810190601f1680156129e05780820380516001836020036101000a031916815260200191505b509250505060405180910390fd5b5060008385039050809150509392505050565b60008083118290612aad576040517f08c379a00000000000000000000000000000000000000000000000000000000081526004018080602001828103825283818151815260200191508051906020019080838360005b83811015612a72578082015181840152602081019050612a57565b50505050905090810190601f168015612a9f5780820380516001836020036101000a031916815260200191505b509250505060405180910390fd5b506000838581612ab957fe5b049050809150509392505050565b612ae68273ffffffffffffffffffffffffffffffffffffffff16612d12565b612b58576040517f08c379a000000000000000000000000000000000000000000000000000000000815260040180806020018281038252601f8152602001807f5361666545524332303a2063616c6c20746f206e6f6e2d636f6e74726163740081525060200191505060405180910390fd5b600060608373ffffffffffffffffffffffffffffffffffffffff16836040518082805190602001908083835b60208310612ba75780518252602082019150602081019050602083039250612b84565b6001836020036101000a0380198251168184511680821785525050505050509050019150506000604051808303816000865af19150503d8060008114612c09576040519150601f19603f3d011682016040523d82523d6000602084013e612c0e565b606091505b509150915081612c86576040517f08c379a00000000000000000000000000000000000000000000000000000000081526004018080602001828103825260208152602001807f5361666545524332303a206c6f772d6c6576656c2063616c6c206661696c656481525060200191505060405180910390fd5b600081511115612d0c57808060200190516020811015612ca557600080fd5b8101908080519060200190929190505050612d0b576040517f08c379a000000000000000000000000000000000000000000000000000000000815260040180806020018281038252602a815260200180612ec4602a913960400191505060405180910390fd5b5b50505050565b60008060007fc5d2460186f7233c927e7db2dcc703c0e500b653ca82273b7bfad8045d85a47060001b9050833f91506000801b8214158015612d545750808214155b9250505091905056fe50726576696f7573207265776172647320706572696f64206d75737420626520636f6d706c657465206265666f7265206368616e67696e6720746865206475726174696f6e20666f7220746865206e657720706572696f64596f75206d757374206265206e6f6d696e61746564206265666f726520796f752063616e20616363657074206f776e65727368697043616e6e6f74207374616b652c207374616b696e6720616d6f756e74206f766572666c6f77696e6743616e6e6f74207374616b65206d6f7265207468616e203225206f6620746865206d6178696d756d207374616b696e6720616d6f756e744f6e6c792074686520636f6e7472616374206f776e6572206d617920706572666f726d207468697320616374696f6e536166654d6174683a206d756c7469706c69636174696f6e206f766572666c6f7743616c6c6572206973206e6f742052657761726473446973747269627574696f6e20636f6e74726163745361666545524332303a204552433230206f7065726174696f6e20646964206e6f742073756363656564a265627a7a7231582071481b2e1cd354262f403050c1fbe91234834be5b16343227428ee006ac63b0864736f6c63430005100032",
  "source": "pragma solidity ^0.5.16;\n\nimport \"openzeppelin-solidity/contracts/math/Math.sol\";\nimport \"openzeppelin-solidity/contracts/math/SafeMath.sol\";\nimport \"openzeppelin-solidity/contracts/token/ERC20/ERC20Detailed.sol\";\nimport \"openzeppelin-solidity/contracts/token/ERC20/SafeERC20.sol\";\nimport \"openzeppelin-solidity/contracts/utils/ReentrancyGuard.sol\";\n\n// Inheritance\nimport \"./interfaces/IStakingRewards.sol\";\nimport \"./RewardsDistributionRecipient.sol\";\n\ncontract StakingRewards is\n    IStakingRewards,\n    RewardsDistributionRecipient,\n    ReentrancyGuard\n{\n    using SafeMath for uint256;\n    using SafeERC20 for IERC20;\n\n    /* ========== STATE VARIABLES ========== */\n\n    IERC20 public rewardsToken;\n    IERC20 public stakingToken;\n    uint256 public periodFinish = 0;\n    uint256 public rewardRate = 0;\n    uint256 public rewardsDuration = 7 days;\n    uint256 public lastUpdateTime;\n    uint256 public rewardPerTokenStored;\n    uint256 public maximumStakingAmount = 100000;\n    uint256 public unstakePenaltyPercent = 25;\n    uint256 public unstakePenaltyDays = 3 days;\n    uint256 public maximumPercentagePerWallet = 2;\n\n    mapping(address => uint256) public stakedTimes;\n    mapping(address => uint256) public stakedTokenWithdrawableDates;\n    mapping(address => uint256) public userRewardPerTokenPaid;\n    mapping(address => uint256) public rewards;\n\n    uint256 private _totalSupply;\n    mapping(address => uint256) private _balances;\n\n    /* ========== CONSTRUCTOR ========== */\n\n    constructor(\n        address _owner,\n        address _rewardsDistribution,\n        address _rewardsToken,\n        address _stakingToken\n    ) public Owned(_owner) {\n        rewardsToken = IERC20(_rewardsToken);\n        stakingToken = IERC20(_stakingToken);\n        rewardsDistribution = _rewardsDistribution;\n    }\n\n    function setRules(\n        uint256 _rewardsDuration,\n        uint256 _maximumStakingAmount,\n        uint256 _maximumPercentagePerWallet,\n        uint256 _unstakePenaltyPercent,\n        uint256 _unstakePenaltyDays\n    ) public {\n        rewardsDuration = _rewardsDuration;\n        maximumStakingAmount = _maximumStakingAmount;\n        maximumPercentagePerWallet = _maximumPercentagePerWallet;\n        unstakePenaltyPercent = _unstakePenaltyPercent;\n        unstakePenaltyDays = _unstakePenaltyDays;\n    }\n\n    /* ========== VIEWS ========== */\n\n    function totalSupply() external view returns (uint256) {\n        return _totalSupply;\n    }\n\n    function balanceOf(address account) external view returns (uint256) {\n        return _balances[account];\n    }\n\n    function lastTimeRewardApplicable() public view returns (uint256) {\n        return Math.min(block.timestamp, periodFinish);\n    }\n\n    function rewardPerToken() public view returns (uint256) {\n        if (_totalSupply == 0) {\n            return rewardPerTokenStored;\n        }\n        return\n            rewardPerTokenStored.add(\n                lastTimeRewardApplicable()\n                    .sub(lastUpdateTime)\n                    .mul(rewardRate)\n                    .mul(1e18)\n                    .div(_totalSupply)\n            );\n    }\n\n    function earned(address account) public view returns (uint256) {\n        return\n            _balances[account]\n                .mul(rewardPerToken().sub(userRewardPerTokenPaid[account]))\n                .div(1e18)\n                .add(rewards[account]);\n    }\n\n    function getRewardForDuration() external view returns (uint256) {\n        return rewardRate.mul(rewardsDuration);\n    }\n\n    function getStakedTokenWithdrawableDates(address account)\n        external\n        view\n        returns (uint256)\n    {\n        return stakedTokenWithdrawableDates[account];\n    }\n\n    /* ========== MUTATIVE FUNCTIONS ========== */\n\n    function stake(uint256 amount)\n        external\n        nonReentrant\n        updateReward(msg.sender)\n    {\n        require(amount > 0, \"Cannot stake 0\");\n        require(\n            _totalSupply.add(amount) > maximumStakingAmount,\n            \"Cannot stake, staking amount overflowing\"\n        );\n        require(\n            _balances[msg.sender].add(amount) >\n                maximumStakingAmount.mul(maximumPercentagePerWallet).div(1e2),\n            \"Cannot stake more than 2% of the maximum staking amount\"\n        );\n        _totalSupply = _totalSupply.add(amount);\n        _balances[msg.sender] = _balances[msg.sender].add(amount);\n        stakingToken.safeTransferFrom(msg.sender, address(this), amount);\n        stakedTimes[msg.sender] = block.timestamp;\n        stakedTokenWithdrawableDates[msg.sender] = stakedTimes[msg.sender];\n        emit Staked(msg.sender, amount);\n    }\n\n    function withdrawAll() public nonReentrant updateReward(msg.sender) {\n        if (block.timestamp < periodFinish) {\n            if (\n                stakedTimes[msg.sender] ==\n                stakedTokenWithdrawableDates[msg.sender]\n            ) {\n                //Apply Penalty\n                uint256 penaltyAmount = rewards[msg.sender]\n                    .mul(unstakePenaltyPercent)\n                    .div(1e2);\n                rewards[msg.sender] = rewards[msg.sender].sub(penaltyAmount);\n                rewardRate = rewardRate.add(\n                    penaltyAmount.div(periodFinish.sub(block.timestamp))\n                );\n\n                stakedTokenWithdrawableDates[msg.sender] = block.timestamp.add(\n                    unstakePenaltyDays\n                );\n            } else if (\n                block.timestamp >= stakedTokenWithdrawableDates[msg.sender]\n            ) {\n                uint256 amount = _balances[msg.sender];\n                _totalSupply = _totalSupply.sub(amount);\n                _balances[msg.sender] = 0;\n                stakingToken.safeTransfer(msg.sender, amount);\n                emit Withdrawn(msg.sender, amount);\n            }\n        } else if (\n            block.timestamp >= stakedTokenWithdrawableDates[msg.sender]\n        ) {\n            uint256 amount = _balances[msg.sender];\n            _totalSupply = _totalSupply.sub(amount);\n            _balances[msg.sender] = 0;\n            stakingToken.safeTransfer(msg.sender, amount);\n            emit Withdrawn(msg.sender, amount);\n        }\n    }\n\n    function getReward() public nonReentrant updateReward(msg.sender) {\n        require(block.timestamp < periodFinish, \"Pool is not finished.\");\n        uint256 reward = rewards[msg.sender];\n        if (reward > 0) {\n            rewards[msg.sender] = 0;\n            rewardsToken.safeTransfer(msg.sender, reward);\n            emit RewardPaid(msg.sender, reward);\n        }\n    }\n\n    function exit() external {\n        withdrawAll();\n        getReward();\n    }\n\n    /* ========== RESTRICTED FUNCTIONS ========== */\n\n    function notifyRewardAmount(uint256 reward)\n        external\n        onlyRewardsDistribution\n        updateReward(address(0))\n    {\n        if (block.timestamp >= periodFinish) {\n            rewardRate = reward.div(rewardsDuration);\n        } else {\n            uint256 remaining = periodFinish.sub(block.timestamp);\n            uint256 leftover = remaining.mul(rewardRate);\n            rewardRate = reward.add(leftover).div(rewardsDuration);\n        }\n\n        // Ensure the provided reward amount is not more than the balance in the contract.\n        // This keeps the reward rate in the right range, preventing overflows due to\n        // very high values of rewardRate in the earned and rewardsPerToken functions;\n        // Reward + leftover must be less than 2^256 / 10^18 to avoid overflow.\n        uint256 balance = rewardsToken.balanceOf(address(this));\n        require(\n            rewardRate <= balance.div(rewardsDuration),\n            \"Provided reward too high\"\n        );\n\n        lastUpdateTime = block.timestamp;\n        periodFinish = block.timestamp.add(rewardsDuration);\n        emit RewardAdded(reward);\n    }\n\n    function setRewardsDuration(uint256 _rewardsDuration) external onlyOwner {\n        require(\n            periodFinish == 0 || block.timestamp > periodFinish,\n            \"Previous rewards period must be complete before changing the duration for the new period\"\n        );\n        rewardsDuration = _rewardsDuration;\n        emit RewardsDurationUpdated(rewardsDuration);\n    }\n\n    /* ========== MODIFIERS ========== */\n\n    modifier updateReward(address account) {\n        rewardPerTokenStored = rewardPerToken();\n        lastUpdateTime = lastTimeRewardApplicable();\n        if (account != address(0)) {\n            rewards[account] = earned(account);\n            userRewardPerTokenPaid[account] = rewardPerTokenStored;\n        }\n        _;\n    }\n\n    /* ========== EVENTS ========== */\n\n    event RewardAdded(uint256 reward);\n    event Staked(address indexed user, uint256 amount);\n    event Withdrawn(address indexed user, uint256 amount);\n    event RewardPaid(address indexed user, uint256 reward);\n    event RewardsDurationUpdated(uint256 newDuration);\n    event Recovered(address token, uint256 amount);\n}\n",
  "sourcePath": "/Volumes/Work/Blockchain/Phantasma/forked/pharming/smart-contract/contracts/StakingRewards.sol",
  "compiler": {
    "name": "solc",
    "version": "0.5.16+commit.9c3226ce.Emscripten.clang"
  },
  "schemaVersion": "3.2.4",
  "updatedAt": "2020-12-03T03:52:25.736Z",
  "networkType": "ethereum",
  "devdoc": {
    "methods": {}
  },
  "userdoc": {
    "methods": {}
  }
}